:020000040800F2
:100000008805002001010008B51D0008E31800085C
:10001000B11D00084B0200085D2800080000000028
:100020000000000000000000000000001D24000887
:100030007902000800000000612100081F24000868
:100040001B0100081B0100081B0100081B01000820
:100050001B0100081B0100081B0100081B01000810
:100060001B0100081B0100081B0100081B01000800
:100070001B0100081B0100081B0100081B010008F0
:100080001B0100081B0100081B0100081B010008E0
:100090001B0100081B0100081B0100081B010008D0
:1000A0001B0100081B0100081B0100081B010008C0
:1000B0001B0100081B0100081B0100081B010008B0
:1000C0001B0100081B0100081B0100081B010008A0
:1000D0001B0100081B0100081B0100084D28000837
:1000E0001B0100081B0100081B010008DFF80CD0F1
:1000F00000F08AF800480047892D00088805002094
:100100000648804706480047FEE7FEE7FEE7FEE7B1
:10011000FEE7FEE7FEE7FEE7FEE7FEE787240008CE
:10012000ED00000840EA01039B0703D009E008C97D
:10013000121F08C0042AFAD203E011F8013B00F8AC
:10014000013B521EF9D27047D2B201E000F8012BF8
:10015000491EFBD270470022F6E710B513460A4647
:1001600004461946FFF7F0FF204610BD30B504469F
:100170000020034600E05B1C934203D2E05CCD5CB0
:10018000401BF8D030BD2DE9F05F054600209246B7
:100190009B4688460646814640241BE02846414649
:1001A0004746224600F020F853465A46C01A91416D
:1001B00010D311461846224600F038F82D1A67EB86
:1001C00001084F4622460120002100F02FF817EBCE
:1001D00000094E41201EA4F10104DFDC48463146EF
:1001E0002A464346BDE8F09F202A04DB203A21FA44
:1001F00002F00021704721FA02F3D040C2F1200240
:100200009140084319467047064C074D06E0E068E8
:1002100040F0010394E8070098471034AC42F6D34D
:10022000FFF768FF2437000844370008202A04DB62
:10023000203A00FA02F1002070479140C2F12003F9
:1002400020FA03F319439040704700BFFEE7000017
:100250000748006840F080700549086000200549A3
:1002600048600846006840F00100086070470000E0
:10027000FCED00E0001000E07047000010B50B48F6
:100280000B4908604FF4E130486000210848816064
:10029000C16001610C21416100218161C16101F0F6
:1002A00001FA08B100F006F810BD00000038014066
:1002B0002400002072B600BFFEE70146002291F83C
:1002C0002100022808D00420886300BF002081F8A4
:1002D000200000BF012070470868006820F00E0071
:1002E0000B6818600868006820F001000B6818604F
:1002F00091F8403001209840CB6B5860012081F884
:10030000210000BF002081F8200000BF1046E2E776
:1003100070B50446002594F82100022803D004207B
:10032000A063012548E02068006820F00E002168E5
:1003300008602068006820F00100216808601F49FB
:100340002068884201D1012026E01C491431206830
:10035000884201D110201FE01849283120688842C6
:1003600001D1801518E015493C312068884201D13F
:10037000801411E0114950312068884202D14FF4B5
:10038000803009E00D4964312068884202D14FF481
:10039000801001E04FF08070084908394860012062
:1003A00084F8210000BF002084F8200000BF606BAB
:1003B00010B12046616B8847284670BD0800024096
:1003C00070B5044600F0AEF906462546681C10B12B
:1003D00004480078054400BF00F0A4F9801BA8423F
:1003E000FAD370BD0C0000202DE9F8470346002227
:1003F00094466EE14FF0010808FA02F4D1F800804B
:1004000008EA0400A0427DD1DFF8DCA2D1F8048024
:10041000A8EB0A09D0453AD014DCB8F1030F50D04C
:1004200009DCB8F1000F31D0B8F1010F1CD0B8F1E0
:10043000020F49D120E0B8F1110F18D0B8F1120F16
:1004400042D11EE0B9F5881F25D006DCB9F5803F02
:1004500020D0B9F5801F37D11AE0B9F5001F18D0A8
:10046000B9F5041F30D117E0D1F80CC02DE0D1F858
:100470000C8008F1040C28E0D1F80C8008F1080C7D
:1004800023E0D1F80C8008F10C0C1EE000BF00BF87
:1004900000BF00BF00BF00BFD1F80880B8F1000F57
:1004A00002D14FF0040C0BE0D1F80880B8F1010F35
:1004B00003D14FF0080C1C6102E04FF0080C5C61A6
:1004C00003E04FF0000C00E000BF00BFFF2801D8A0
:1004D000984601E003F104084646FF2802D84FEA97
:1004E000820803E0A2F108084FEA88084746D6F8D8
:1004F00000804FF00F0909FA07F928EA09080CFAF9
:1005000007F900E088E048EA0908C6F80080D1F859
:10051000048008F08058B8F1805F7DD100BFDFF81B
:10052000CC81D8F8188048F00108DFF8C091C9F8EC
:100530001880C846D8F8188008F00108CDF8008067
:1005400000BF00BF4FEAB9384FEA920958F8295066
:100550004FEA82784FEA18794FF00F0808FA09F845
:1005600025EA0805DFF88881434502D14FF00008ED
:1005700016E0DFF88081434502D14FF001080FE01B
:10058000DFF87481434502D14FF0020808E0DFF83C
:100590006C81434502D14FF0030801E04FF004089D
:1005A0004FEA82794FEA197908FA09F848EA05050D
:1005B000DFF84C814FEA920948F82950D1F80480BD
:1005C00008F48018B8F5801F0AD1DFF83881D8F810
:1005D000008048EA0008DFF82C91C9F8008009E0A3
:1005E000DFF82081D8F8008028EA0008DFF81491AD
:1005F000C9F80080D1F8048008F40018B8F5001F8D
:1006000010D1DFF8008108F10408D8F8008048EA2A
:100610000008DFF8F09000E05AE009F10409C9F899
:1006200000800DE0DFF8DC8008F10408D8F80080D5
:1006300028EA0008DFF8CC9009F10409C9F8008025
:10064000D1F8048008F40038B8F5003F0ED1DFF887
:10065000B480A8F10408D8F8008048EA0008DFF860
:10066000A490A9F10409C9F800800DE0DFF8948096
:10067000A8F10408D8F8008028EA0008DFF8849080
:10068000A9F10409C9F80080D1F8048008F4803881
:10069000B8F5803F0ED1DFF86C80A8F10808D8F8D3
:1006A000008048EA0008DFF85C90A9F10809C9F861
:1006B00000800DE0DFF84C80A8F10808D8F8008031
:1006C00028EA0008DFF83C90A9F10809C9F8008081
:1006D000521CD1F8008028FA02F8B8F1000F7FF41C
:1006E00089AEBDE8F887000000001110001002403C
:1006F00000080140000C01400010014000140140BE
:100700000800014008040140024693680B400BB109
:10071000012000E0002070470AB1016101E00B04F4
:100720000361704701480068704700000400002022
:1007300070B504460CB9012070BD94F83D0028B98D
:10074000002084F83C00204600F092F9242084F830
:100750003D002068006820F00100216808602068E2
:10076000006840F40040216808602068006820F4B8
:1007700000402168086000F02BFB05465C4960687A
:10078000884206D85B48854201D2012007E000205C
:1007900005E05948854201D2012000E000200128EF
:1007A00000D1C9E75548B5FBF0F62068406820F055
:1007B0003F003043216848604D496068884201D855
:1007C000701C07E04FF4967070434FF47A71B0FBE1
:1007D000F1F0401C2168096A21F03F0108432168BB
:1007E000086243496068884214D8681E61684900FD
:1007F000B0FBF1F0401CC0F30B00042801D2042030
:100800003DE0681E61684900B0FBF1F0401CC0F398
:100810000B0034E0A06838B9681E616801EB410143
:10082000B0FBF1F0401C0AE0681E616801EBC102F8
:1008300002EB0111B0FBF1F0401C40F48040C0F32A
:100840000B0008B901201AE0A06848B9681E616869
:1008500001EB4101B0FBF1F0401CC0F30B000CE0D8
:10086000681E616801EBC10202EB0111B0FBF1F0FF
:10087000401CC0F30B0040F4804040F4004021686D
:10088000C9694CF6FF72914308432168C861D4E9F5
:10089000070108432168096821F0C0010843216865
:1008A0000860D4E9031008432168896848F2FF32E0
:1008B0009143084321688860D4E905010843216811
:1008C000C96821F0FF0108432168C86020680068FA
:1008D00040F001002168086000202064202084F896
:1008E0003D000020206384F83E0000BF24E70000A4
:1008F000A086010080841E0000093D0040420F00D8
:100900002DE9F8430446894616461F46DDF8208047
:10091000FFF708FF054694F83D0020287ED11923F3
:10092000012251492046009501F08FF810B10220B4
:10093000BDE8F88300BF94F83C00012801D10220F3
:10094000F6E7012084F83C0000BF2068006800F052
:10095000010028B92068006840F0010021680860A3
:100960002068006820F4006021680860212084F875
:100970003D00102084F83E000020206466626785F8
:10098000608D20853948E0622B4642464946204624
:1009900000F0C8FF08B10120CAE700BF00200090A6
:1009A00020684069009020688069009000BF00BF07
:1009B00044E02A464146204601F023F950B1206C1C
:1009C000042805D12068006840F4007021680860A0
:1009D0000120ADE7606A007821680861606A401C08
:1009E0006062608D401E6085208D401E20852068DD
:1009F0004069C0F3800070B1208D60B1606A0078FA
:100A000021680861606A401C6062608D401E6085DC
:100A1000208D401E20852A46414600E022E02046E7
:100A200000F0E0FF50B1206C042805D12068006878
:100A300040F4007021680860012079E7208D0028CB
:100A4000B7D12068006840F4007021680860202059
:100A500084F83D00002084F83E0000BF84F83C008C
:100A600000BF65E7022063E7020010000000FFFFFF
:100A700010B586B0044600200290039004900590C3
:100A800015492068884225D100BF1448806940F08C
:100A90000800124988610846806900F0080001904A
:100AA00000BF00BFC02002901220039003200590D9
:100AB00002A90B48FFF798FC00BF0848C06940F442
:100AC00000100649C8610846C06900F40010019092
:100AD00000BF00BF06B010BD00540040001002402F
:100AE000000C0140034800680349097808440149A3
:100AF00008607047040000200C00002010B5084872
:100B0000006840F0100006490860032000F080F8FB
:100B10000F2000F007F800F02BF8002010BD0000B7
:100B20000020024070B504460E4800784FF47A71F8
:100B3000B1FBF0F00C490968B1FBF0F5284600F074
:100B4000D1FB08B1012070BD102C07D20022214634
:100B5000501E00F01EF80548046001E00120F2E795
:100B60000020F0E70C00002000000020080000201A
:100B7000704701460846002809DB00F01F030122E8
:100B80009A4043099B0003F1E023C3F8002100BF12
:100B900070472DE9F05F80460D461646002701F0AC
:100BA00083FE074639462A46334601F00700C0F166
:100BB000070ABAF1040F02D94FF0040A01E0C0F1AC
:100BC000070AD14600F1040ABAF1070F02D24FF02A
:100BD000000A01E0A0F1030AD4464FF0010A0AFA24
:100BE00009FAAAF1010A0AEA020A0AFA0CFA4FF013
:100BF000010B0BFA0CFBABF1010B0BEA030B4AEAFE
:100C00000B042146404601F057FEBDE8F09F00006E
:100C100000BF00F00702064B19684FF6FF031940AA
:100C2000044B0B4343EA0221014B196000BF70479C
:100C30000CED00E00000FA0570B504460D460CB955
:100C4000012070BD5A48006800F00700A8420ED28B
:100C50005748006820F007002843554908600846B7
:100C6000006800F00700A84201D00120E9E72078E1
:100C700000F0020002281DD1207800F004000428B2
:100C800005D14C48406840F4E0604A49486020780B
:100C900000F00800082805D14648406840F460503C
:100CA000444948604348406820F0F000A168084388
:100CB00040494860207800F0010078B3606801285E
:100CC00006D13C48006800F4003090B90120B8E734
:100CD0006068022806D13748006800F0007040B90B
:100CE0000120AEE73348006800F0020008B9012097
:100CF000A7E73048406820F00300616808432D49A9
:100D00004860FFF70FFD064609E0FFF70BFD801B6B
:100D100041F28831884202D9032092E707E0254852
:100D2000406800F00C006168B0EB810FEDD1204805
:100D3000006800F00700A8420ED91D48006820F0A6
:100D4000070028431A4908600846006800F00700B9
:100D5000A84201D0012074E7207800F004000428A4
:100D600007D11448406820F4E060E1680843114965
:100D70004860207800F00800082808D10D48406835
:100D800020F46050216940EAC1000A49486000F03F
:100D90003FF808494968C1F30311074A515CC8404C
:100DA0000649086006480068FFF7BCFE002048E7D7
:100DB0000020024000100240D02D0008000000205A
:100DC0000800002001480068704700000000002073
:100DD00000B5FFF7F7FF04494968C1F30221034A50
:100DE000515CC84000BD000000100240E02D00082A
:100DF00000B5FFF7E7FF04494968C1F3C221034A80
:100E0000515CC84000BD000000100240E02D000809
:100E100070B500210022002400230020134D6968D2
:100E200001F00C05F5B1042D02D0082D19D101E017
:100E30000F4819E00F4DC1F38346AB5D01F48035D7
:100E400055B10A4D6D68C5F340450B4E725D084DB6
:100E50005D43B5FBF2F402E0084D03FB05F42046C8
:100E600002E000BF024800BF00BF70BD001002409A
:100E700000127A00E82D0008F82D000800093D0056
:100E8000F8B504460CB90120F8BD207800F0010047
:100E9000002878D0F848406800F00C0004280CD0F6
:100EA000F548406800F00C00082811D1F24840686D
:100EB00000F48030B0F5803F0AD1EF48006800F4BC
:100EC000003000285FD0606800285CD10120DBE79B
:100ED00000BF6068B0F5803F06D1E748006840F485
:100EE0008030E549086028E0606858B9E248006849
:100EF00020F48030E04908600846006820F4802033
:100F000008601AE06068B0F5A02F0BD1DA480068DD
:100F100040F48020D84908600846006840F48030DA
:100F200008600AE0D448006820F48030D2490860A4
:100F30000846006820F48020086000BF606888B11F
:100F4000FFF7F0FB054606E0FFF7ECFB401B6428CB
:100F500001D9032098E7C848006800F40030002851
:100F6000F2D010E0FFF7DEFB054606E0FFF7DAFB04
:100F7000401B642801D9032086E7BF48006800F4BD
:100F800000300028F2D1207800F00200022857D16A
:100F9000B948406800F00C0050B1B748406800F014
:100FA0000C00082818D1B448406800F4803098B983
:100FB000B148006800F0020020B12069012801D08A
:100FC000012061E7AC48006820F0F800616940EA60
:100FD000C100A949086033E02069E8B10120A749B0
:100FE0000860FFF79FFB054606E0FFF79BFB401BF1
:100FF000022801D9032047E79F48006800F002005B
:101000000028F2D09C48006820F0F800616940EAAE
:10101000C1009949086013E0002098490860FFF773
:1010200081FB054606E0FFF77DFB401B022801D946
:10103000032029E79048006800F002000028F2D160
:10104000207800F0080008282DD1A069B8B101204F
:101050008B490860FFF766FB054606E0FFF762FB79
:10106000401B022801D903200EE78348406A00F0A4
:1010700002000028F2D0012001F074F813E00020F3
:101080007F490860FFF74EFB054606E0FFF74AFB85
:10109000401B022801D90320F6E67748406A00F099
:1010A00002000028F2D1207800F00400042873D157
:1010B00000277148C06900F0805070B900BF6E48C9
:1010C000C06940F080506C49C8610846C06900F0B2
:1010D0008050009000BF00BF01276A48006800F4FC
:1010E0008070B0B96748006840F480706549086056
:1010F000FFF718FB054606E0FFF714FB401B6428CA
:1011000001D90320C0E65F48006800F48070002821
:10111000F2D000BFE068012806D15748006A40F0CD
:1011200001005549086227E0E06858B95248006A52
:1011300020F00100504908620846006A20F00400CF
:10114000086219E0E06805280BD14B48006A40F0BE
:101150000400494908620846006A40F0010008623C
:101160000AE04548006A20F0010043490862084649
:10117000006A20F00400086200BFE068A0B1FFF739
:10118000D1FA054609E0FFF7CDFA401B41F288315C
:10119000884202D9032077E622E03748006A00F04F
:1011A00002000028EFD012E0FFF7BCFA054608E085
:1011B000FFF7B8FA401B41F28831884201D9032079
:1011C00062E62D48006A00F002000028F0D1012FED
:1011D00005D12948C06920F080502749C86100BF67
:1011E000E069C8B32448406800F00C00082860D0CB
:1011F000E069022848D1002020490866FFF792FAEA
:10120000054606E0FFF78EFA401B022801D90320AD
:101210003AE61948006800F000700028F2D1206A10
:10122000B0F5803F07D11448406820F40030A16831
:10123000084311494860D4E9080108430E49496848
:1012400021F4741108430C49486001200B490866D9
:10125000FFF768FA054607E03DE0FFF763FA401B39
:10126000022801D903200FE60348006800F000704F
:101270000028F2D02FE0000000100240000042429F
:101280008004424200700040002014490866FFF7C5
:1012900049FA054606E0FFF745FA401B022801D946
:1012A0000320F1E50E48006800F000700028F2D13C
:1012B00011E0E069012800D1E6E50948466806F436
:1012C0008031206A814204D106F47011606A814243
:1012D00001D00120D8E50020D6E500000000424200
:1012E0000010024070B504462546681EB0F1807FAC
:1012F00001D301200FE0681E4FF0E02148610F216B
:101300004FF0FF3001F0D8FA00204FF0E021886163
:1013100007200861002070BDF8B504460E46174648
:1013200094F8420020282ED106B10FB90120F8BD53
:1013300001202063002060633A463146204601F0D8
:10134000EFF90546EDB9206B012819D100BF002047
:10135000009020680068009020684068009000BFFE
:1013600000BF00BF00BF21680C3151E8001F41F0F1
:10137000100021680C3141E80002002AF3D100E09E
:1013800001252846D3E70220D1E7000070B50446C6
:101390000D4606492068884207D10120044908709B
:1013A000802204490448FFF7B7FF70BD00480040A1
:1013B00015000020B40000206C00002070470000E1
:1013C0002DE9F84F0446206805682068C668206843
:1013D00047694FF00009CA4605F00F09B9F1000F3F
:1013E0000AD105F0200038B106F0200020B12046D7
:1013F00001F09AF8BDE8F88FB9F1000F7BD007F043
:10140000010018B906F49070002874D005F00100AE
:1014100030B106F4807018B1606C40F00100606477
:1014200005F0040030B107F0010018B1606C40F025
:101430000200606405F0020030B107F0010018B14D
:10144000606C40F00400606405F0080048B106F0EC
:10145000200010B907F0010018B1606C40F00800DE
:101460006064606C002845D005F0200028B106F0CB
:10147000200010B1204601F057F820684069C0F301
:10148000801A606C00F0080010B9BAF1000F2CD07F
:10149000204601F003F82068406900F0400000B3E6
:1014A00000BF00BF2168143151E8001F21F0400047
:1014B0002168143141E80002002AF3D100BFE06B3B
:1014C00050B17748E16B4863E06BFEF721FF88B1CC
:1014D000E06B416B88470DE02046FFF76FFF09E0A6
:1014E00009E02046FFF76AFF04E02046FFF766FFA9
:1014F000002060647EE7206B012877D105F01000A2
:10150000002873D006F010000028FAD000BF002099
:10151000009020680068009020684068009000BF3C
:1015200000BF2068406900F0400000285FD0E06BF9
:10153000006840681FFA80F8B8F1000F55D0A08D00
:10154000404552DDA4F82E80E06B8069202843D00E
:1015500000BF00BF21680C3151E8001F21F48070EA
:1015600021680C3141E80002002AF3D100BF00BF1E
:1015700000BF2168143151E8001F21F001002168EB
:10158000143141E80002002AF3D100BF00BF00BFC0
:101590002168143151E8001F21F040002168143106
:1015A00041E80002002AF3D100BF202084F8420065
:1015B0000020206300BF00BF21680C3151E8001FEC
:1015C00021F0100021680C3141E80002002AF3D11B
:1015D00000BFE06BFEF771FE02206063A08DE28D1C
:1015E000801A81B22046FFF7D1FE03E742E0A08DCA
:1015F000E18D401A1FFA80F8E08DD0B3B8F1000FEA
:1016000037D000BF00BF21680C3151E8001F21F422
:10161000907021680C3141E80002002AF3D100BF2C
:1016200000BF00BF2168143151E8001F21F0010004
:101630002168143141E80002002AF3D100BF2020C4
:1016400084F842000020206300BF00BF21680C31F5
:1016500051E8001F21F0100021680C3141E8000220
:10166000002AF3D100BF0220606341462046FFF705
:101670008DFEBFE605F0800030B106F0800018B1A5
:10168000204601F06DF8B5E605F0400030B106F0F7
:10169000400018B1204600F037FFABE600BFA9E6D6
:1016A0008924000810B504460CB9012010BDA069BA
:1016B00000B100E000BF94F8410028B9002084F890
:1016C0004000204600F02AF8242084F841002068D9
:1016D000C06820F400502168C860204600F0A2FFD6
:1016E0002068006920F49040216808612068406902
:1016F00020F02A00216848612068C06840F400504A
:101700002168C86000206064202084F8410084F8CB
:1017100042000020606300BFC8E7000010B586B03B
:1017200004460020029003900490059037492068F9
:1017300088422ED100BF3648806940F48040344949
:1017400088610846806900F48040019000BF00BFB6
:1017500000BF0846806940F004008861084680693F
:1017600000F00400019000BF00BF48150290022065
:1017700003900320059002A92648FEF735FE4FF49A
:101780008060029000200390049002A92148FEF797
:101790002BFE21492068884236D100BF1C48C06911
:1017A00040F480201A49C8610846C06900F48020CE
:1017B000019000BF00BF00BF0846806940F00800EC
:1017C00088610846806900F00800019000BF00BFF2
:1017D00008150290022003900320059002A90F48EB
:1017E000FEF702FE4FF40060029000200390049088
:1017F00002A90A48FEF7F8FD002211462720FFF74C
:10180000C8F92720FFF7B5F906B010BD0038014030
:10181000001002400008014000480040000C014058
:1018200070472DE9F84F04460E46174699464FF08B
:10183000000A94F84100202850D106B117B90120C0
:10184000BDE8F88F00206064212084F84100FEF795
:1018500069FF8246A784E784A068B0F5805F04D161
:10186000206910B90025B04602E035464FF0000867
:101870001EE05346002280212046CDF8009000F063
:101880009FFF20B1202084F841000320D8E745B90C
:10189000B8F80000C0F308002168486008F10208A9
:1018A00003E02878216848606D1CE08C401EE084CD
:1018B000E08C0028DDD15346002240212046CDF89F
:1018C000009000F07DFF20B1202084F8410003202B
:1018D000B6E7202084F841000020B1E70220AFE7FE
:1018E000704700BFFEE7014608684069C0F38020EA
:1018F000B0B16FF480600A68506100200863202056
:1019000081F83D00002081F83E00086C40F00400A2
:10191000086400BF002081F83C0000BF0120704730
:101920000020FCE72DE9F84304460D46174698468B
:10193000E66A082E04D0012E02D016F5803F06D1AB
:101940002068006840F480702168086008E0206B1F
:10195000122805D12068006840F480702168086072
:101960003B4600224FF001112046CDF8008000F0E8
:101970006CF860B12068006800F48070B0F5807F7A
:1019800002D14FF4007020640320BDE8F883206981
:10199000B0F5804F04D105F0FE002168086112E027
:1019A00005F44070F02141EAE010216808614346E7
:1019B0003A460B49204600F0A7F808B10120E4E7B9
:1019C000E8B22168086143463A460549891F204626
:1019D00000F09AF808B10120D7E70020D5E7000011
:1019E0000800010070B504460D46164625E0204665
:1019F000FFF779FF08B1012070BD681CE8B1FEF760
:101A000091FE801BA84200D8BDB920684069C0F390
:101A1000800090B900202063202084F83D00002041
:101A200084F83E00206C40F02000206400BF0020BD
:101A300084F83C0000BF0120DEE720684069C0F365
:101A400080000028D3D00020D6E72DE9F0410446DD
:101A50000D4617461E46DDF8188038E0701CA8B306
:101A6000FEF760FEA0EB0800B04200D876BBC5F3DD
:101A7000074001280AD120684069A9B20840A9B2EC
:101A8000884201D101200BE0002009E02068806934
:101A9000A9B20840A9B2884201D1012000E000208B
:101AA000B84214D100202063202084F83D0000209B
:101AB00084F83E00206C40F02000206400BF00202D
:101AC00084F83C0000BF0120BDE8F081FFE7C5F3CA
:101AD000074001280AD120684069A9B20840A9B28C
:101AE000884201D101200BE0002009E020688069D4
:101AF000A9B20840A9B2884201D1012000E000202B
:101B0000B842ABD00020DFE72DE9F04104460D4696
:101B100016461F4658E020684069C0F38020E8B1AF
:101B20002068006840F40070216808606FF48060ED
:101B30002168486100202063202084F83D000020B7
:101B400084F83E00206C40F00400206400BF0020B8
:101B500084F83C0000BF0120BDE8F081701C90B308
:101B6000FEF7E0FDC01BB04200D866BBC5F30740DE
:101B700001280AD120684069A9B20840A9B2884268
:101B800001D101200BE0002009E020688069A9B2A2
:101B90000840A9B2884201D1012000E0002090B99C
:101BA00000202063202084F83D00002084F83E00BF
:101BB000206C40F02000206400BF002084F83C002E
:101BC00000BF0120C8E7FFE7C5F3074001280AD19D
:101BD00020684069A9B20840A9B2884201D1012019
:101BE0000BE0002009E020688069A9B20840A9B292
:101BF000884201D1012000E0002000288BD0002085
:101C0000AAE770B504460D46164625E02046FFF7C4
:101C10006AFE08B1012070BD681CE8B1FEF782FDC4
:101C2000801BA84200D8BDB920684069C0F3C0102D
:101C300090B900202063202084F83D00002084F823
:101C40003E00206C40F02000206400BF002084F89B
:101C50003C0000BF0120DEE720684069C0F3C010EF
:101C60000028D3D00020D6E700B585B00020019031
:101C700002900390049000BF2548806940F0100056
:101C8000234988610846806900F01000009000BF79
:101C900000BF00BF0846806940F020008861084608
:101CA000806900F02000009000BF00BF00BF084620
:101CB000806940F0040088610846806900F00400F3
:101CC000009000BF00BF00BF0846806940F00800D8
:101CD00088610846806900F00800009000BF00BFDE
:101CE0004FF400500190002002900220039001A9BF
:101CF0000848FEF779FB01200190002002900220A5
:101D0000039001A90448FEF76FFB05B000BD000079
:101D100000100240001001400008014000B585B0ED
:101D20000020019002900390049000BF0F4880694A
:101D300040F004000D4988610846806900F0040005
:101D4000009000BF00BF0E200190012002900020F3
:101D500003900220049001A90548FEF745FB0122EB
:101D60000E210348FEF7D8FC05B000BD001002406C
:101D70000008014010B50B480B4908600B4848604B
:101D8000002109488160C1604FF480410161002158
:101D900041618161C1610162FEF7CAFC08B1FEF7D1
:101DA00089FA10BD0054004034010020801A06005A
:101DB00000BFFEE7704710B5002000F015F810BD19
:101DC0001CB504460020019064206100002301AA94
:101DD00000900448FEF794FD08B900201CBD0120C6
:101DE000FCE700003401002030B5A1B00546802199
:101DF00001A8FEF7B0F92A46802101A8FEF7A4F950
:101E000000240AE00021204600F08BF8802201A97E
:101E1000402000F015F9601CC4B2082CF2DB21B0A0
:101E200030BD10B56420FEF7CBFA00BF3C20FFF7B1
:101E3000C7FF0028FAD1AE2100F05AF92021002076
:101E400000F056F90221002000F052F9B0210020E4
:101E500000F04EF9A121002000F04AF9C82100202D
:101E600000F046F90021084600F042F91021002058
:101E700000F03EF94021002000F03AF981210020D5
:101E800000F036F9FF21002000F032F9A1210020F6
:101E900000F02EF9A621002000F02AF9A821002048
:101EA00000F026F93F21002000F022F9A4210020B3
:101EB00000F01EF9D321002000F01AF90021084695
:101EC00000F016F9D521002000F012F9F0210020D1
:101ED00000F00EF9D921002000F00AF9222100209B
:101EE00000F006F9DA21002000F002F912210020AA
:101EF00000F0FEF8DB21002000F0FAF8202100209D
:101F000000F0F6F88D21002000F0F2F814210020F6
:101F100000F0EEF8AF21002000F0EAF8FFF74BFFE9
:101F200010BD38B505460C4605F1B000C0B28DF8BD
:101F30000000102040EA14108DF8010004F00F009A
:101F40008DF8020003226946002000F079F838BDC0
:101F50002DE9F0470646894617469846A7F1200422
:101F6000B8F1060F03D0B8F1080F3AD113E0494693
:101F70003046FFF7D6FF00250AE004EB44001B4A79
:101F800002EB4000415D402000F0B2F8681CC5B291
:101F9000062DF2DB26E049463046FFF7C2FF00255A
:101FA00008E0134800EB0410415D402000F0A0F869
:101FB000681CC5B2082DF4DB711CC8B24946FFF796
:101FC000B0FF00250AE00A4800EB041205F1080002
:101FD000115C402000F08CF8681CC5B2082DF2DBC3
:101FE00000E000BF00BFBDE8F0870000FA2E000847
:101FF000343100082DE9F04180460D4614461E4656
:1020000000270AE014F8012B07FB0650C1B2334643
:102010004046FFF79DFF781CC7B220780028F1D119
:10202000BDE8F08170B504460D461646EA06110E6D
:102030006206100E08233246FFF7DCFF70BD000079
:10204000F0B5C1B005460F461446FF2C06D921460F
:1020500010A000F005FC012041B0F0BD8DF8045047
:10206000224639460DF10500FEF75CF86420009029
:10207000601C83B201AA78210F48FEF741FC064696
:102080000EB90020E8E7224629460CA000F0E8FB44
:102090000120E1E74F4C45445F5772697465427512
:1020A0006666657220E695B0E68DAEE8BF87E99575
:1020B000BF282575290D0A00340100204F4C4544E6
:1020C0005F577269746542756666657220E5869928
:1020D000E585A5E5A4B1E8B4A5EFBC9A636D643DC0
:1020E000307825303258206C656E3D25750D0A001C
:1020F0007CB504460D468DF804408DF805506420EB
:10210000022301AA782100900648FEF7F9FB08B9DE
:1021100000207CBD2A46214603A000F0A1FB01203F
:10212000F7E70000340100204F4C45445F577269C7
:1021300074654279746520E58699E585A5E5A4B1C5
:10214000E8B4A5EFBC9A636D643D30782530325811
:1021500020627974653D3078253032580D0A0000D0
:102160007047000008B508490968C9084FF47A7239
:10217000B1FBF2F14143009100BF00BF00994A1E3C
:1021800000920029F9D108BD0000002000B585B0FB
:102190000020019002900390049000BF19488069CC
:1021A00040F00800174988610846806900F008007F
:1021B000009000BF00BF002289151348FEF7ACFA5B
:1021C0004FF48070019001200290002003900320C2
:1021D000049001A90C48FEF707F900224FF40071A2
:1021E0000948FEF799FA4FF400700190012002901F
:1021F000002003900320049001A90348FEF7F4F89F
:1022000005B000BD00100240000C014010B500F008
:10221000E9F8FFF7BBFF802209490A48FFF77CF87D
:10222000012202210848FEF777FA0022042106481D
:10223000FEF772FA012208210348FEF76DFA10BD7D
:10224000B40000206C0000200008014070B5044676
:102250000D464B480078002834D0032249A14A4853
:10226000FDF784FF28B1032248A14748FDF77EFF10
:1022700040BB002042490870434A00210846FFF74E
:10228000D1FE43480078204410F8012C41A1434876
:1022900000F0F6FA414A00210220FFF7C3FE0A20AF
:1022A000FEF78EF8032237A13748FDF75FFF0028BD
:1022B00065D137480078204410F8011C38A000F0A0
:1022C000CFFA5CE001213848FEF71EFA012800D160
:1022D00000E00020002843D03448007800283FD197
:1022E0002B480078A8423BDA25480078B8BB142078
:1022F000FEF766F800BF01212B48FEF705FA01281A
:1023000000D100E000200028F5D101202749087005
:1023100001224FF440712648FEF7FEF90A20FEF72D
:102320004FF81B4909786018012100F045F8002298
:102330004FF440711E48FEF7EFF915480078225C13
:1023400014A11C4800F09CFA1A4A00210120FFF752
:1023500069FE0F480078401C0D4908700FE0FFE748
:1023600001211148FEF7D0F9012800D100E000203A
:1023700028B90E48007810B100200C49087070BDD3
:102380001500002041434B00B40000204E414B009B
:102390001E000020253032780000000019000020C7
:1023A0002530327820000000000801401D00002088
:1023B000000C01401600002070B504460D464FF099
:1023C000FF332A4621460648FFF72BFA00BF044890
:1023D00000680068C0F380100028F8D070BD0000CD
:1023E0006C00002010B50B480B4908604FF4E13039
:1023F0004860002108488160C16001610C21416191
:1024000000218161C161FFF74DF908B1FDF752FF6D
:1024100010BD0000004800406C000020704710B55F
:10242000FEF760FB10BD00B58FB014210AA8FDF7C0
:1024300092FE28216846FDF78EFE012000900004E0
:1024400001900020029002200790C10308914FF4F0
:10245000E01109916846FEF713FD08B100BFFEE7E1
:102460000F200A9002200B9000200C900E904FF449
:1024700080600D9002210AA8FEF7DEFB08B100BFC4
:10248000FEE70FB000BD704770B505466C6A0020CE
:10249000E085E0842046FEF791FF70BD00BF00BFDD
:1024A00002680C3252E8002F22F4907102680C325C
:1024B00042E80013002BF3D100BF00BF00BF026849
:1024C000143252E8002F22F001010268143242E86F
:1024D0000013002BF3D100BF016B01290ED100BF07
:1024E00000BF02680C3252E8002F22F0100102688F
:1024F0000C3242E80013002BF3D100BF202180F8FA
:10250000421000210163704710B504462068C0687E
:1025100020F040002168C860202084F84100204657
:10252000FFF7DEF9002010BDF8B5044694F842002C
:10253000222875D1A068B0F5805F0CD1206950B910
:102540000025A66A20684068C0F308003080A06AB1
:10255000801CA06215E0A56A0026A068B0F5805F27
:1025600003D0A06828B9206918B92068406828708D
:1025700004E02068406800F07F002870A06A401CDA
:10258000A062E08D401E80B2E085002846D1206820
:10259000C06820F020002168C8602068C06820F46E
:1025A00080702168C8602068406920F001002168BF
:1025B0004861202084F8420000206063206B0128DD
:1025C00026D10020206300BF00BF21680C3151E8F4
:1025D000001F21F0100021680C3141E80002002AA0
:1025E000F3D100BF2068006800F0100010280AD165
:1025F00000BF0020009020680068009020684068BC
:10260000009000BF00BFA18D2046FEF7BFFE02E094
:102610002046FFF705F90020F8BD01E00020FBE7A8
:102620000220F9E770B504462168096921F4405198
:10263000E2681143226811612269A168114362694D
:1026400041EA02052168C96841F20C6291432943BD
:102650002268D1602168496921F44071A26911435F
:10266000226851612D4A2168914202D1FEF7C0FBD8
:1026700001E0FEF7ADFB00EBC00101EB0011626869
:102680009200B1FBF2F100EBC00202EB00126368B2
:102690009B00B2FBF3F26423B2FBF3F202EBC20342
:1026A00003EB0212A1EB8201322202EB0111642240
:1026B000B1FBF2F101F0F00100EBC00202EB0012FD
:1026C00063689B00B2FBF3F26423B2FBF3F201EB0D
:1026D000021200EBC00101EB001163689B00B1FB2B
:1026E000F3F100EBC00303EB00136668B600B3FB25
:1026F000F6F36426B3FBF6F303EBC30606EB031312
:10270000A1EB8301322303EB01116423B1FBF3F14D
:1027100001F00F0111442268916070BD0038014042
:1027200010B5034699629A85DA8500205864222004
:1027300083F84200186928B11868C06840F48070B6
:102740001C68E0601868406940F001001C68606126
:102750001868C06840F020001C68E060002010BDD0
:10276000014691F84100212828D18868B0F5805FA2
:102770000BD1086948B90A6A1088C0F308000B68D1
:102780005860086A801C086205E00B6A581C0862E1
:1027900018780B685860C88C401E80B2C88458B93D
:1027A0000868C06820F080000B68D8600868C068BE
:1027B00040F040000B68D860002070470220FCE722
:1027C0002DE9F84304460D4617469846089E31E029
:1027D000701C70B3FDF7A6FFA0EB0800B04200D854
:1027E00016B90320BDE8F8832068C06800F0040033
:1027F000F8B1802D1ED0402D1CD020680068C0F399
:10280000C000B0B100BF00200090206800680090B8
:1028100020684068009000BF00BF2046FFF73EFEE2
:102820000820606400BF002084F8400000BF012041
:10283000D8E7FFE7206800682840A84201D10120BE
:1028400000E00020B842C3D00020CBE710B502481A
:10285000FEF7B6FD10BD00006C00002000BFFEE7D3
:102860000FB4054B10B503A9044A029800F048F8CC
:1028700010BC5DF814FB00006D2D00082000002046
:102880000FB4084B10B504A902AA039800F038F859
:10289000044602A9002000F064FA204610BC5DF84E
:1028A00014FB0000632D000802480068C0F30220FA
:1028B000704700000CED00E010B5002804DB0A07AB
:1028C000130E054A135406E00A07140E034A00F0DB
:1028D0000F031B1FD45410BD00E400E018ED00E00E
:1028E00002E008C8121F08C1002AFAD170477047D9
:1028F000002001E001C1121F002AFBD17047000037
:102900002DE9FF4F8DB00F460546002606E025282D
:102910000BD0DDE90F1290476D1C761C287800283B
:10292000F5D111B03046BDE8F08F0024A246A14693
:102930000122EC4900E0044315F8013F203B02FA74
:1029400003F00842F7D128782A2810D06FF02F0220
:102950002878A0F13001092914D80AEB8A0102EB8A
:10296000410144F0020400EB010A6D1CF0E701CFC5
:102970005FEA000A03D544F40054CAF1000A44F0A7
:1029800002046D1C28782E2817D115F8010F44F089
:1029900004042A280ED06FF02F022878A0F130010D
:1029A00009290AD809EB890102EB410100EB010971
:1029B0006D1CF2E757F8049B6D1C28786C280FD02B
:1029C00006DC4C2817D068280DD06A2814D104E002
:1029D000742810D07A280FD10DE044F400140AE0D6
:1029E00044F4801401E044F440146978814202D137
:1029F00004F580146D1C6D1C2A786E2A1FD00CDC27
:102A0000632A31D004DC002A8BD0582A11D1A3E0EC
:102A1000642A68D0692A0CD165E0732A2ED004DCC0
:102A20006F2A73D0702A04D19BE0752A6FD0782A60
:102A30006ED01046DDE90F129047761C50E1C4F3CA
:102A40000250022806D0032809D0042801CF09D05B
:102A5000066045E101CFF117C0E9006140E101CF17
:102A600006803DE106703BE117F8040B8DF800008D
:102A700000208DF80100EB46012003E057F804BB6D
:102A80004FF0FF3061074FF0000102D40DE008F174
:102A90000101884649450FDA8045F8DB1BF808102C
:102AA0000029F4D108E008F1010188468142FADBEF
:102AB0001BF808100029F6D1DDE90F23AAEB080066
:102AC0008146214600F036F9304400EB080604E068
:102AD000DDE90F121BF8010B9047B8F10108F7D29E
:102AE00021464846F7E00A21C4F302534FF0000B99
:102AF0000891022B04D001CFC117032B09D00AE0A3
:102B0000FF1D27F00707F7E8020108E032E01FE0A9
:102B100020E000B2C117042B01D140B2C117031E3F
:102B200071F1000307DA4FF0000CD0EB0C006CEBF6
:102B300001012D2302E0230504D52B238DF8243039
:102B4000012303E0E30701D02023F7E7984658E08C
:102B50000A2110E010210EE010204FF0000B089029
:102B60000CE010214FF0000B44F004044FF0080972
:102B7000089103E008214FF0000B0891C4F30253C1
:102B8000022B04D001CF0021032B06D006E0FF1D4D
:102B900027F00707F7E8020103E080B2042B00D119
:102BA000C0B24FF0000823072BD5702A07D0DDF8FC
:102BB00020C08CF0100C5CEA0B0C05D00EE040231A
:102BC0008DF82430012308E050EA010306D03023B9
:102BD0008DF824308DF8252002239846DDF820C09A
:102BE0008CF0080C5CEA0B0C0BD150EA010301D10C
:102BF000630706D530238DF824304FF00108A9F182
:102C00000109582A04D038A20B9208AA0A920BE0B4
:102C10003AA2F9E75B46089AFDF7B5FA0B9B9B5C75
:102C20000A9A521E0A92137050EA0102F2D10A98CF
:102C3000ADEB000000F1200B600702D524F48034D6
:102C400001E04FF00109D94502DDA9EB0B0000E0DE
:102C5000002000EB0B0141440890AAEB010AE003BD
:102C600006D4DDE90F232146504600F063F8064400
:102C70004FF0000908E009A911F80900DDE90F1279
:102C8000904709F10109761CC145F4DBE0030CD53E
:102C9000DDE90F232146504600F04CF8064404E0DD
:102CA000DDE90F1230209047761C0899481E0890E5
:102CB0000029F5DC08E00A980A990078491C0A9175
:102CC000DDE90F129047761CBBF10001ABF1010B5F
:102CD000F1DC21465046DDE90F2300F019F80644E7
:102CE0006D1C1BE60928010030313233343536378C
:102CF0003839616263646566000000003031323348
:102D000034353637383941424344454600000000E7
:102D10002DE9F041044600251E461746880404D4D8
:102D200005E039462020B0476D1C641EF9D52846C1
:102D3000BDE8F0812DE9F041044600251E4690468D
:102D4000C80301D5302700E02027880404D505E01A
:102D500041463846B0476D1C641EF9D52846BDE88B
:102D6000F0810A68531C0B601070704713B50C4655
:102D70004FF0FF33012269460248FEF752FD0098EA
:102D80001CBD000024000020FDF7B8FEFFF74BFB40
:102D9000FEF7C4FFFEF768FFFEF7ECFFFDF76EFAE3
:102DA000FDF756FAFFF732FAFFF73BF880220549A4
:102DB0000548FEF7B1FA03E008210448FFF746FA98
:102DC000FAE70000B40000206C0000200D00002095
:102DD00000000000000000000102030406070809CB
:102DE00000000000010203040203040506070809AD
:102DF0000A0B0C0D0E0F1010010200FE9292FE92B3
:102E000092FE00424AD26A46C00040C444443F2475
:102E100024240040807F000100000000C038000032
:102E200000FF000040201800000080814020100CAE
:102E30000300030C1020408080000000F888888880
:102E400088FF88888888F800000000001F080808AC
:102E5000087F888888889F80F000808282828282B2
:102E600082E2A2928A8682808000000000000040F8
:102E7000807F00000000000000001060028C000055
:102E8000FE9292929292FE00000004047E01407E27
:102E900042427E427E42427E40000000FC242424C6
:102EA000FC252624FC242424040040308F80844CFC
:102EB00055252525554C808080001060028C00FE31
:102EC000929292929292FE00000004047E01444885
:102ED000507F40407F50484440000000FC242424A0
:102EE000FC252624FC242424040040308F80844CBC
:102EF00055252525554C80808000000000000000ED
:102F000000004C400000000202020000207C282843
:102F10003E20006C4A7424000C523C7C5270304CB1
:102F20007A6C50400002000000000000007C82002B
:102F300000423C0000000018381018000000101873
:102F4000100000C000000000080808080808004041
:102F500000000000004030080600007C42427C0077
:102F60000000447C0000006462524C000064424A4D
:102F70007C000010287C2000006C4C4C7000007C11
:102F80004A4A74000004641C0400007C4A527C001D
:102F9000005C52523C000000484800000000C8009D
:102FA00000000018282442000018181818000042D9
:102FB00024281800000462520C0018647A566C1819
:102FC00040301C1C7000007C54545C201864424249
:102FD0004224007C44442418007C54544400007C67
:102FE00014141C04384442426400007C10107C001D
:102FF00000007C440000808080FC0400007C0834D9
:103000004000007C40404000704C70107C00007C10
:1030100008103C00186442424438007C14140C042C
:1030200038446242C438007C14146C00004C4A528C
:10303000740004047C040404007C40407C00000C08
:1030400030300C00003C143C1C0400442838440080
:103050000004780804000064544C44000000FE8220
:103060008000000608304000008082FE0000000161
:10307000010101008080808080800001010000004B
:10308000006058587040007E484870000070484802
:103090004000007048487E4000706868500000089A
:1030A0007C0C0C0000F0E8E8D808007E08087000EE
:1030B000000878400000008080887A00007E103888
:1030C000480000007E40000078484870487008784A
:1030D0000808700000704848700008F84848700000
:1030E00000704848F0000848700808000050586810
:1030F000680000087C48480008784040784008187C
:103100002020180008382838380800483838480087
:103110000098A06018080048685848000000007E29
:103120008000000000FF000000807E000000000121
:10313000010202000000000000000000000000008A
:1031400000000000000000F8000000000000003354
:103150000000000000100C02100C02000000000033
:10316000000000000040C07840C0780000043F0428
:10317000043F040000708888FC08300000182020FC
:10318000FF211E00F008F0806018000000310C03E1
:103190001E211E0000F00888700000001E21232C54
:1031A0001927211000120E0000000000000000008E
:1031B00000000000000000E018040200000000070A
:1031C0001820400000020418E00000000040201811
:1031D00007000000404080F0804040000202010FE4
:1031E0000102020000000000E000000000010101F7
:1031F0000F010101000000000000000000907000BD
:1032000000000000000000000000000000010101BB
:10321000010101000000000000000000003030004B
:103220000000000000000000C03804000060180723
:103230000000000000E010080810E000000F10205F
:1032400020100F0000001010F800000000002020E7
:103250003F202000007008080808F00000302824F3
:103260002221300000300808088870000018202152
:1032700021221C000000804030F8000000060524D8
:10328000243F242400F8888888080800001920209A
:1032900020110E0000E0108888900000000F11201F
:1032A00020201F0000180808886818000000003E51
:1032B000010000000070880808887000001C2221AE
:1032C00021221C0000F008080810E0000001122272
:1032D00022110F00000000C0C000000000000030FC
:1032E000300000000000008000000000000000E04E
:1032F00000000000000080402010080000010204CF
:1033000008102000004040404040400000020202FF
:103310000202020000081020408000000020100877
:1033200004020100007048080888700000000030A6
:1033300037000000C030C828E810E0000718272830
:103340002F2817000000C038E0000000203C2302B6
:103350000227382008F8888888700000203F202045
:1033600020110E00C0300808080838000718202077
:103370002010080008F808080810E000203F20206E
:1033800020100F0008F88888E8081000203F20204F
:103390002320180008F88888E8081000203F200043
:1033A00003000000C030080808380000071820207B
:1033B000221E020008F808000008F808203F21013A
:1033C00001213F20000808F8080800000020203FE5
:1033D0002020000000000808F8080800C080808055
:1033E0007F00000008F888C028180800203F20014E
:1033F0002638200008F8080000000000203F2020A8
:103400002020300008F8F800F8F80800203F013EBE
:10341000013F200008F830C00008F808203F2000D5
:1034200007183F00E01008080810E0000F102020E7
:1034300020100F0008F808080808F000203F2101BC
:1034400001010000E01008080810E0000F10282813
:1034500030504F0008F8888888887000203F20008E
:10346000030C30200070880808083800003820213C
:1034700021221C00180808F8080818000000203F46
:103480002000000008F808000008F808001F2020AD
:1034900020201F000878880000C83808000007387E
:1034A0000E01000008F800F800F8080000033E01D3
:1034B0003E030000081868808068180820302C033C
:1034C000032C30200838C800C83808000000203F0E
:1034D0002000000010080808C838080020382621FD
:1034E00020201800000000FE020202000000007F01
:1034F00040404000000438C000000000000000010F
:103500000638C00000020202FE00000000404040F9
:103510007F00000000000402020400000000000020
:10352000000000000000000000000000808080809B
:103530008080808000020204000000000000000083
:10354000000000000000808080000000001924249A
:10355000123F200010F0008080000000003F11208A
:1035600020110E000000008080800000000E11205D
:1035700020201100000080808090F000001F20209B
:1035800020103F200000808080800000001F242445
:1035900024241700008080E0909020000020203F2D
:1035A000202000000000808080808000006B9494C8
:1035B0009493600010F0008080800000203F210084
:1035C00000203F2000809898000000000020203F4D
:1035D00020200000000000809898000000C080803B
:1035E000807F000010F0000080808000203F2406D3
:1035F00029302000001010F8000000000020203FBB
:10360000202000008080808080808000203F20007B
:103610003F20003F8080008080800000203F21000C
:1036200000203F200000808080800000001F2020BC
:1036300020201F00808000808000000080FF9120FB
:1036400020110E000000008080008000000E11207C
:103650002091FF80808080008080800020203F219A
:10366000200001000000808080808000003324243E
:1036700024241900008080E0808000000000001FEA
:10368000202010008080000000808000001F20208B
:1036900020103F20808080008080800000030C305C
:1036A0000C0300008080008080008080010E300CC0
:1036B0000738060100808080008080000020310EE5
:1036C0002E312000808080000080808000818678FC
:1036D0001806010000808080808080000021302C4E
:1036E000222130000000000000FC02020000000067
:1036F000013E404000000000FF000000000000000C
:10370000FF0000000202FC000000000040403E01FB
:10371000000000000002010202040200000000009C
:1037200000000000443700080000002024000000D2
:10373000E028000868370008240000206405000025
:10374000F028000800127A000000000010000000BD
:103750000101020304050607080000000000000044
:08376000000000000000000061
:04000005080000ED02
:00000001FF
