:020000040800F2
:100000009004002001010008A51C00088F1B0008B7
:10001000A11C00080F020008411F0008000000009A
:10002000000000000000000000000000D11C0008DB
:10003000BD03000800000000A71C0008D31C000836
:100040001B0100081B0100081B0100081B01000820
:100050001B0100081B0100081B0100081B01000810
:100060001B0100081B0100081B0100081B01000800
:100070001B0100081B0100081B0100081B010008F0
:100080001B0100081B0100081B0100081B010008E0
:10009000311F00081B0100081B0100081B0100089C
:1000A0001B0100081B0100081B0100081B010008C0
:1000B0001B0100081B0100081B0100081B010008B0
:1000C0001B0100081B0100081B0100081B010008A0
:1000D0001B0100081B0100081B0100081B01000890
:1000E0001B0100081B0100081B010008DFF80CD0F1
:1000F00000F06CF8004800473D2400089004002000
:100100000648804706480047FEE7FEE7FEE7FEE7B1
:10011000FEE7FEE7FEE7FEE7FEE7FEE73B1D000821
:10012000ED000008D2B201E000F8012B491EFBD21D
:1001300070470022F6E710B513460A4604461946F2
:10014000FFF7F0FF204610BD2DE9F05F05460020C7
:1001500092469B4688460646814640241BE0284638
:1001600041464746224600F020F853465A46C01AF8
:10017000914110D311461846224600F039F82D1A45
:1001800067EB01084F4622460120002100F030F8BD
:1001900017EB00094E41201EA4F10104DFDC4846A4
:1001A00031462A464346BDE8F09F202A04DB203A28
:1001B00021FA02F00021704721FA02F3D040C2F187
:1001C000200291400843194670470000064C074D35
:1001D00006E0E06840F0010394E807009847103417
:1001E000AC42F6D3FFF786FF4425000864250008DB
:1001F000202A04DB203A00FA02F1002070479140E7
:10020000C2F1200320FA03F319439040704700BF66
:10021000FEE7000010B50D480D4908600420486055
:1002200000210B488160C1604FF480210161C90049
:1002300041610021017641768176C176017741776F
:1002400000F00EFC08B100F0D7F810BD00640040CB
:100250006400002000B58BB0282101A8FFF769FFDA
:100260000020069007900120089042F26040019023
:10027000002002904FF6E07003900020049005905B
:100280000120099001A9044800F073F908B100F0B9
:10029000B3F80BB000BD00006400002010B5FFF7FC
:1002A000B9FFFFF7D7FF044800F089FD022102489B
:1002B00000F0A5F810BD00006400002070B588B003
:1002C00004460D46164602940020049005900696BA
:1002D00001AB2A4602A90D4800F0A6F8002812D169
:1002E0000BA001F02FFE11A001F02CFE18A0029926
:1002F00001F028FE059808B91BA000E01DA00146EA
:100300001FA001F01FFE08B070BD000064000020B7
:1003100043414E20E58F91E98081E695B0E68DAEB0
:10032000E68890E58A9F210D0A000000E58F91E99B
:100330008081E79A84E68AA5E69687E4BFA1E681F4
:10034000AFE5A682E4B88BEFBC9A0D0A000000006E
:10035000E6A087E58786204944EFBC9A30782530AF
:1003600033580D0A00000000E695B0E68DAEE5B802
:10037000A7000000E8BF9CE7A88BE5B8A700000035
:10038000E5B8A7E7B1BBE59E8BEFBC9A25730D0AD4
:10039000000000000748006840F0807005490860D0
:1003A0000020054948600846006840F001000860E8
:1003B00070470000FCED00E0001000E07047000016
:1003C00010B50B480B4908604FF4E130486000213C
:1003D00008488160C16001610C2141610021816197
:1003E000C16101F0F5FA08B100F006F810BD000097
:1003F000003801401C00002072B600BFFEE710B5B7
:10040000024692F82030012B01D0022B06D1106851
:100410004069084314686061002010BD506A40F4D0
:10042000802050620120F8E7F0B504460D461E46D4
:1004300094F8207020688368A86800B900E000BFC5
:10044000012F01D0022F7DD103F0806030B903F07D
:10045000006018B903F0805000287ED0C3F301611A
:10046000012088403060A86860B9B5F800C0E8682D
:1004700040EA4C5C206800F5C07000EB0110C0F849
:1004800000C00FE0D5E901C040EACC00D5F80CC0AF
:1004900040EA0C00D4F800C00CF5C07C0CEB011C49
:1004A000CCF80000D5F810C0206800F5C07000EB53
:1004B0000110C0F804C0287D01280ED1206800F585
:1004C000C07000EB0110406840F4807C206800F5AB
:1004D000C07000EB0110C0F804C0D079000692F89B
:1004E00006C040EA0C4092F805C040EA0C2092F8A1
:1004F00004C040EA0C00D4F800C00CF5C07C0CEB42
:10050000011CCCF80C00D078000692F802C040EA3A
:100510000C4092F801C040EA0C2092F800C040EA7A
:100520000C00D4F800C00CF5C07C0CEB011CCCF81E
:100530000800206800F5C07000EB0110006840F072
:10054000010C01E00FE008E0206800F5C07000EB4E
:100550000110C0F800C00020F0BD606A40F4001037
:1005600060620120F8E7606A40F480206062012048
:10057000F2E7F0B504460A46216894F82050012DB0
:1005800001D0022D74D1D1F8000240F00100C1F871
:100590000002107D00F01F06012000FA06F3D1F8DA
:1005A0001C029843C1F81C02D069C8B9D1F80C02EA
:1005B0009843C1F80C02908880B2968940EA0646BA
:1005C00001F51070576940F83760108880B21689BD
:1005D00040EA064601F51070576900EBC700466017
:1005E000D069012819D1D1F80C021843C1F80C02C6
:1005F000908880B2168840EA064601F51070576967
:1006000040F83760908980B2168940EA064601F5C5
:100610001070576900EBC7004660906928B9D1F89F
:1006200004029843C1F8040204E0D1F8040218431C
:10063000C1F80402106928B9D1F814029843C1F82E
:10064000140204E0D1F814021843C1F81402106A2D
:10065000012804D1D1F81C021843C1F81C02D1F8BA
:10066000000220F00100C1F800020020F0BDFFE709
:10067000606A40F4802060620120F7E7704770B53F
:10068000044694F82050012D01D0022D7DD151B99E
:100690002068C06800F0030080B9606A40F4001070
:1006A0006062012070BD2068006900F0030028B975
:1006B000606A40F4001060620120F3E7206800F5F2
:1006C000D87000EB0110006800F0040090609068A2
:1006D00040B9206800F5D87000EB01100068400DAB
:1006E000106007E0206800F5D87000EB011000688A
:1006F000C0085060206800F5D87000EB0110006859
:1007000000F00200D060206800F5D87000EB011006
:10071000406800F00F00082802D30820106108E0AC
:10072000206800F5D87000EB0110406800F00F0061
:100730001061206800F5D87000EB0110406800F4EB
:100740007F40000A9061206800F5D87000EB01102E
:100750004068000C5061206800F5D87000EB011073
:1007600080681870206800F5D87000EB0110806870
:1007700000F47F40000A5870206800F5D87000EB44
:100780000110806800F47F0000E03CE0000C9870ED
:10079000206800F5D87000EB01108068000ED8705A
:1007A000206800F5D87000EB0110C068187120684F
:1007B00000F5D87000EB0110C06800F47F40000A1B
:1007C0005871206800F5D87000EB0110C06800F483
:1007D0007F00000C9871206800F5D87000EB0110C4
:1007E000C068000ED87131B92068C06840F02000A0
:1007F0002668F06005E02068006940F02000266867
:10080000306100204EE7606A40F480206062012081
:1008100048E72DE9F05F0446002520684669206816
:10082000D0F80490206887682068D0F80CA0206871
:10083000D0F810B02068D0F8188006F00100002829
:1008400055D007F00100C0B101202168886007F091
:10085000020018B1204600F0E2FA0EE007F00400B2
:1008600010B145F4006508E007F0080010B145F448
:10087000805502E0204600F0D1FA07F48070C8B13C
:100880004FF480702168886007F4007018B120462A
:1008900000F0C7FA0EE007F4806010B145F400558F
:1008A00008E007F4006010B145F4804502E02046FE
:1008B00000F0B6FA07F48030C8B14FF480302168F8
:1008C000886007F4003018B1204600F0ACFA0EE062
:1008D00007F4802010B145F4004508E007F400203B
:1008E00010B145F4803502E0204600F09BFA06F096
:1008F000080038B10AF0100020B145F4007510204E
:100900002168C86006F0040040B10AF0080028B170
:1009100008202168C860204600F0A8F906F002000F
:1009200038B12068C06800F0030010B1204600F024
:100930009FF906F0400038B10BF0100020B145F4EB
:10094000806510202168086106F0200040B10BF09E
:10095000080028B1082021680861204600F02CFA20
:1009600006F0100038B12068006900F0030010B1F3
:10097000204600F022FA06F4003040B109F01000E1
:1009800028B1102021684860204600F017FA06F4CC
:10099000803040B109F0080028B108202168486083
:1009A000204600F041FA06F4004088B309F0040044
:1009B00078B306F4807020B108F0010008B145F06A
:1009C000010506F4007020B108F0020008B145F0FE
:1009D000020506F4806020B108F0040008B145F07B
:1009E000040506F40060A0B108F0700088B108F0BA
:1009F0007000402817D006DC10280BD020280CD01F
:100A0000302819D10CE0502810D0602814D110E003
:100A10001DE019E045F008050FE045F010050CE079
:100A200045F0200509E045F0400506E045F0800569
:100A300003E045F4807500E000BF00BF20688069D6
:100A400020F07000216888610420216848602DB181
:100A5000606A284360622046FFF710FEBDE8F09F01
:100A600070B504460CB9012070BD94F8200010B98F
:100A7000204600F0AFF82068006840F001002168CF
:100A8000086000F085FB05460DE000F081FB401B8F
:100A90000A2808D9606A40F400306062052084F8B2
:100AA00020000120E0E72068406800F001000028F5
:100AB000EBD02068006820F002002168086000F098
:100AC00067FB05460DE000F063FB401B0A2808D9D0
:100AD000606A40F400306062052084F82000012044
:100AE000C2E72068406800F002000028EBD1207EB9
:100AF000012806D12068006840F080002168086065
:100B000005E02068006820F0800021680860607EB1
:100B1000012806D12068006840F040002168086084
:100B200005E02068006820F0400021680860A07E91
:100B3000012806D12068006840F020002168086084
:100B400005E02068006820F0200021680860E07E51
:100B5000012806D12068006820F010002168086094
:100B600005E02068006840F0100021680860207FE0
:100B7000012806D12068006840F00800216808605C
:100B800005E02068006820F0080021680860607FA8
:100B9000012806D12068006840F004002168086040
:100BA00005E02068006820F0040021680860D4E9AE
:100BB0000201084321690843616908436168491ECD
:100BC00008432168C86100206062012084F8200089
:100BD000002049E710B586B004460020029003903B
:100BE000049005901E492068884236D100BF1D48F8
:100BF000C06940F000701B49C8610846C06900F038
:100C00000070019000BF00BF00BF0846806940F03F
:100C1000040088610846806900F00400019000BF6C
:100C200000BFC814029000200390049002A90E484F
:100C300000F010F94FF4805002900220039003203E
:100C4000059002A9084800F005F900221146142079
:100C500000F0FBFA142000F0E8FA06B010BD000026
:100C6000006400400010024000080140704700008E
:100C700030B587B005461C4B6A4600212846FFF771
:100C8000FEFC1AA001F05EF920A001F05BF90298C9
:100C900020B925A0009901F055F903E028A0019999
:100CA00001F050F9039808B92BA000E02DA00146EF
:100CB0002FA001F047F933A0049901F043F938A0BF
:100CC00001F040F9002406E00748015D38A001F07A
:100CD00039F9601CC4B20498A042F5D803A001F011
:100CE00031F907B030BD00000D0000200D0A3D3D78
:100CF0003D3D3D3D3D3D3D3D3D3D3D3D3D3D3D3D24
:100D00003D3D3D3D3D3D0D0A0000000043414E206C
:100D1000E68EA5E694B6E588B0E695B0E68DAEEF32
:100D2000BC9A0D0A00000000E6A087E58786E5B8BA
:100D3000A7204944EFBC9A3078253033580D0A007B
:100D4000E689A9E5B195E5B8A7204944EFBC9A30FA
:100D500078253038580D0A00E695B0E68DAEE5B836
:100D6000A7000000E8BF9CE7A88BE5B8A70000003B
:100D7000E5B8A7E7B1BBE59E8BEFBC9A25730D0ADA
:100D800000000000E695B0E68DAEE995BFE5BAA695
:100D9000EFBC9A256420E5AD97E88A820D0A000031
:100DA000E695B0E68DAEE58685E5AEB9EFBC9A0076
:100DB000253032582000000070477047704770B5EA
:100DC000044694F82000012822D1022084F8200053
:100DD0002068006820F001002168086000F0D8F960
:100DE00005460DE000F0D4F9401B0A2808D9606AD6
:100DF00040F400306062052084F82000012070BDBE
:100E00002068406800F001000028EBD16062F6E73E
:100E1000606A40F4002060620120F0E7704770478C
:100E200070477047704770477047000070B50446C0
:100E300000F0AEF906462546681C10B1044800785B
:100E4000054400BF00F0A4F9801BA842FAD370BD8E
:100E50000C0000202DE9F8470346002294466EE17D
:100E60004FF0010808FA02F4D1F8008008EA040003
:100E7000A0427DD1DFF8DCA2D1F80480A8EB0A09FA
:100E8000D0453AD014DCB8F1030F50D009DCB8F1EA
:100E9000000F31D0B8F1010F1CD0B8F1020F49D1C9
:100EA00020E0B8F1110F18D0B8F1120F42D11EE0B6
:100EB000B9F5881F25D006DCB9F5803F20D0B9F5FB
:100EC000801F37D11AE0B9F5001F18D0B9F5041FFB
:100ED00030D117E0D1F80CC02DE0D1F80C8008F12A
:100EE000040C28E0D1F80C8008F1080C23E0D1F8BC
:100EF0000C8008F10C0C1EE000BF00BF00BF00BF5B
:100F000000BF00BFD1F80880B8F1000F02D14FF048
:100F1000040C0BE0D1F80880B8F1010F03D14FF0B9
:100F2000080C1C6102E04FF0080C5C6103E04FF01C
:100F3000000C00E000BF00BFFF2801D8984601E088
:100F400003F104084646FF2802D84FEA820803E06E
:100F5000A2F108084FEA88084746D6F800804FF00B
:100F60000F0909FA07F928EA09080CFA07F900E05D
:100F700088E048EA0908C6F80080D1F8048008F043
:100F80008058B8F1805F7DD100BFDFF8CC81D8F800
:100F9000188048F00108DFF8C091C9F81880C846E9
:100FA000D8F8188008F00108CDF8008000BF00BF15
:100FB0004FEAB9384FEA920958F829504FEA827837
:100FC0004FEA18794FF00F0808FA09F825EA0805E2
:100FD000DFF88881434502D14FF0000816E0DFF8C2
:100FE0008081434502D14FF001080FE0DFF87481A2
:100FF000434502D14FF0020808E0DFF86C81434519
:1010000002D14FF0030801E04FF004084FEA827963
:101010004FEA197908FA09F848EA0505DFF84C8122
:101020004FEA920948F82950D1F8048008F4801852
:10103000B8F5801F0AD1DFF83881D8F8008048EA77
:101040000008DFF82C91C9F8008009E0DFF8208162
:10105000D8F8008028EA0008DFF81491C9F8008069
:10106000D1F8048008F40018B8F5001F10D1DFF89B
:10107000008108F10408D8F8008048EA0008DFF889
:10108000F09000E05AE009F10409C9F800800DE091
:10109000DFF8DC8008F10408D8F8008028EA0008AE
:1010A000DFF8CC9009F10409C9F80080D1F8048078
:1010B00008F40038B8F5003F0ED1DFF8B480A8F18D
:1010C0000408D8F8008048EA0008DFF8A490A9F1E5
:1010D0000409C9F800800DE0DFF89480A8F1040845
:1010E000D8F8008028EA0008DFF88490A9F1040904
:1010F000C9F80080D1F8048008F48038B8F5803F42
:101100000ED1DFF86C80A8F10808D8F8008048EA12
:101110000008DFF85C90A9F10809C9F800800DE02B
:10112000DFF84C80A8F10808D8F8008028EA000809
:10113000DFF83C90A9F10809C9F80080521CD1F8E9
:10114000008028FA02F8B8F1000F7FF489AEBDE8FC
:10115000F887000000001110001002400008014054
:10116000000C014000100140001401400800014043
:1011700008040140024693680B400BB1012000E0D7
:10118000002070470AB1016101E00B040361704760
:101190000148006870470000040000200348006810
:1011A0000349097808440149086070470400002099
:1011B0000C00002010B50848006840F010000649F7
:1011C0000860032000F080F80F2000F007F800F01E
:1011D0002BF8002010BD00000020024070B504462E
:1011E0000E4800784FF47A71B1FBF0F00C490968B1
:1011F000B1FBF0F5284600F0D1FB08B1012070BD2D
:10120000102C07D200222146501E00F01EF805487F
:10121000046001E00120F2E70020F0E70C0000206C
:101220000000002008000020704701460846002802
:1012300009DB00F01F0301229A4043099B0003F1E0
:10124000E023C3F8002100BF70472DE9F05F80461E
:101250000D461646002700F085FE074639462A4609
:10126000334601F00700C0F1070ABAF1040F02D9B2
:101270004FF0040A01E0C0F1070AD14600F1040A68
:10128000BAF1070F02D24FF0000A01E0A0F1030A01
:10129000D4464FF0010A0AFA09FAAAF1010A0AEA49
:1012A000020A0AFA0CFA4FF0010B0BFA0CFBABF135
:1012B000010B0BEA030B4AEA0B042146404600F0FF
:1012C00059FEBDE8F09F000000BF00F00702064B8A
:1012D00019684FF6FF031940044B0B4343EA022100
:1012E000014B196000BF70470CED00E00000FA05EB
:1012F00070B504460D460CB9012070BD5A4800680F
:1013000000F00700A8420ED25748006820F00700FE
:101310002843554908600846006800F00700A842C5
:1013200001D00120E9E7207800F0020002281DD159
:10133000207800F00400042805D14C48406840F4AF
:10134000E0604A494860207800F00800082805D18C
:101350004648406840F4605044494860434840680B
:1013600020F0F000A168084340494860207800F070
:10137000010078B36068012806D13C48006800F499
:10138000003090B90120B8E76068022806D13748DC
:10139000006800F0007040B90120AEE733480068F3
:1013A00000F0020008B90120A7E73048406820F0AB
:1013B0000300616808432D494860FFF7E9FE0646CF
:1013C00009E0FFF7E5FE801B41F28831884202D92F
:1013D000032092E707E02548406800F00C006168B0
:1013E000B0EB810FEDD12048006800F00700A84263
:1013F0000ED91D48006820F0070028431A490860EC
:101400000846006800F00700A84201D0012074E7F8
:10141000207800F00400042807D11448406820F424
:10142000E060E168084311494860207800F0080056
:10143000082808D10D48406820F46050216940EA2E
:10144000C1000A49486000F03FF808494968C1F303
:101450000311074A515CC840064908600648006805
:10146000FFF7BCFE002048E70020024000100240C9
:10147000182500080000002008000020014800682E
:10148000704700000000002000B5FFF7F7FF044997
:101490004968C1F30221034A515CC84000BD000005
:1014A000001002402825000800B5FFF7E7FF0449B7
:1014B0004968C1F3C221034A515CC84000BD000025
:1014C000001002402825000870B5002100220024E9
:1014D00000230020134D696801F00C05F5B1042DBF
:1014E00002D0082D19D101E00F4819E00F4DC1F3CA
:1014F0008346AB5D01F4803555B10A4D6D68C5F387
:1015000040450B4E725D084D5D43B5FBF2F402E0C1
:10151000084D03FB05F4204602E000BF024800BF6F
:1015200000BF70BD0010024000127A003025000894
:101530004025000800093D00F8B504460CB901201B
:10154000F8BD207800F00100002878D0F848406805
:1015500000F00C0004280CD0F548406800F00C00A6
:10156000082811D1F248406800F48030B0F5803F7F
:101570000AD1EF48006800F4003000285FD06068AE
:1015800000285CD10120DBE700BF6068B0F5803F38
:1015900006D1E748006840F48030E549086028E05B
:1015A000606858B9E248006820F48030E04908607B
:1015B0000846006820F4802008601AE06068B0F5F2
:1015C000A02F0BD1DA48006840F48020D849086089
:1015D0000846006840F4803008600AE0D44800689B
:1015E00020F48030D24908600846006820F480204A
:1015F000086000BF606888B1FFF7CAFD054606E0D5
:10160000FFF7C6FD401B642801D9032098E7C848AE
:10161000006800F400300028F2D010E0FFF7B8FDB9
:10162000054606E0FFF7B4FD401B642801D90320FE
:1016300086E7BF48006800F400300028F2D1207827
:1016400000F00200022857D1B948406800F00C00B1
:1016500050B1B748406800F00C00082818D1B448D1
:10166000406800F4803098B9B148006800F002008A
:1016700020B12069012801D0012061E7AC48006851
:1016800020F0F800616940EAC100A949086033E030
:101690002069E8B10120A7490860FFF779FD0546F8
:1016A00006E0FFF775FD401B022801D9032047E73C
:1016B0009F48006800F002000028F2D09C480068B3
:1016C00020F0F800616940EAC1009949086013E020
:1016D000002098490860FFF75BFD054606E0FFF72C
:1016E00057FD401B022801D9032029E790480068D4
:1016F00000F002000028F2D1207800F0080008284D
:101700002DD1A069B8B101208B490860FFF740FDD9
:10171000054606E0FFF73CFD401B022801D90320E7
:101720000EE78348406A00F002000028F2D0012052
:1017300000F0BAFA13E000207F490860FFF728FDA7
:10174000054606E0FFF724FD401B022801D90320CF
:10175000F6E67748406A00F002000028F2D12078CF
:1017600000F00400042873D100277148C06900F01C
:10177000805070B900BF6E48C06940F080506C491D
:10178000C8610846C06900F08050009000BF00BFEB
:1017900001276A48006800F48070B0B967480068A3
:1017A00040F4807065490860FFF7F2FC054606E0EA
:1017B000FFF7EEFC401B642801D90320C0E65F4818
:1017C000006800F480700028F2D000BFE0680128B3
:1017D00006D15748006A40F001005549086227E0E9
:1017E000E06858B95248006A20F001005049086288
:1017F0000846006A20F00400086219E0E068052845
:101800000BD14B48006A40F0040049490862084681
:10181000006A40F0010008620AE04548006A20F0D2
:101820000100434908620846006A20F0040008628B
:1018300000BFE068A0B1FFF7ABFC054609E0FFF789
:10184000A7FC401B41F28831884202D9032077E689
:1018500022E03748006A00F002000028EFD012E0D2
:10186000FFF796FC054608E0FFF792FC401B41F2AB
:101870008831884201D9032062E62D48006A00F0D1
:1018800002000028F0D1012F05D12948C06920F0BD
:1018900080502749C86100BFE069C8B32448406848
:1018A00000F00C00082860D0E069022848D1002030
:1018B00020490866FFF76CFC054606E0FFF768FC68
:1018C000401B022801D903203AE61948006800F0BD
:1018D00000700028F2D1206AB0F5803F07D114488B
:1018E000406820F40030A168084311494860D4E9F9
:1018F000080108430E49496821F4741108430C4952
:10190000486001200B490866FFF742FC054607E0E6
:101910003DE0FFF73DFC401B022801D903200FE604
:101920000348006800F000700028F2D02FE00000AB
:101930000010024000004242800442420070004019
:10194000002014490866FFF723FC054606E0FFF770
:101950001FFC401B022801D90320F1E50E48006856
:1019600000F000700028F2D111E0E069012800D1F8
:10197000E6E50948466806F48031206A814204D1D0
:1019800006F47011606A814201D00120D8E5002080
:10199000D6E50000000042420010024070B5044647
:1019A0002546681EB0F1807F01D301200FE0681E3C
:1019B0004FF0E02148610F214FF0FF3000F0DAFADC
:1019C00000204FF0E021886107200861002070BDF1
:1019D00010B504460CB9012010BDA06900B100E0AB
:1019E00000BF94F8410028B9002084F84000204648
:1019F00000F02AF8242084F841002068C06820F410
:101A000000502168C860204600F0CEF920680069C7
:101A100020F49040216808612068406920F02A0085
:101A2000216848612068C06840F400502168C8609F
:101A300000206064202084F8410084F842000020E7
:101A4000606300BFC8E7000010B586B00446002000
:101A500002900390049005901A49206888422ED184
:101A600000BF1948806940F48040174988610846E2
:101A7000806900F48040019000BF00BF00BF0846AD
:101A8000806940F0040088610846806900F0040025
:101A9000019000BF00BF4815029002200390032070
:101AA000059002A90948FFF7D5F94FF4806002902C
:101AB00000200390049002A90448FFF7CBF906B078
:101AC00010BD000000380140001002400008014035
:101AD0002DE9F84F04460E46174699464FF0000A86
:101AE00094F84100202850D106B117B90120BDE873
:101AF000F88F00206064212084F84100FFF748FB44
:101B00008246A784E784A068B0F5805F04D120698D
:101B100010B90025B04602E035464FF000081EE03F
:101B20005346002280212046CDF8009000F0BAF9FB
:101B300020B1202084F841000320D8E745B9B8F847
:101B40000000C0F308002168486008F1020803E0C3
:101B50002878216848606D1CE08C401EE084E08C91
:101B60000028DDD15346002240212046CDF80090C8
:101B700000F098F920B1202084F841000320B6E756
:101B8000202084F841000020B1E70220AFE700BF29
:101B9000FEE7000000B585B00020019002900390A0
:101BA000049000BF2548806940F0100023498861F7
:101BB0000846806900F01000009000BF00BF00BF21
:101BC0000846806940F0200088610846806900F07E
:101BD0002000009000BF00BF00BF0846806940F0B1
:101BE000040088610846806900F00400009000BF8E
:101BF00000BF00BF0846806940F0080088610846C1
:101C0000806900F00800009000BF00BF4FF4005052
:101C10000190002002900220039001A90848FFF7DC
:101C200019F901200190002002900220039001A9DF
:101C30000448FFF70FF905B000BD00000010024096
:101C4000001001400008014000B585B0002001905F
:101C500002900390049000BF0F48806940F0040098
:101C60000D4988610846806900F00400009000BFBB
:101C700000BF0E200190012002900020039002205E
:101C8000049001A90548FFF7E5F801220E21034859
:101C9000FFF778FA05B000BD0010024000080140CF
:101CA00000BFFEE77047704708B508490968C908D2
:101CB0004FF47A72B1FBF2F14143009100BF00BFD3
:101CC00000994A1E00920029F9D108BD00000020A9
:101CD000704710B5FFF762FA10BD00B58FB0142140
:101CE0000AA8FEF726FA28216846FEF722FA012004
:101CF0000090000401900020029002200790C10390
:101D000008914FF4E01109916846FFF715FC08B1FE
:101D100000BFFEE70F200A9002200B9000200C90DD
:101D20000E904FF480600D9002210AA8FFF7E0FAB0
:101D300008B100BFFEE70FB000BD704700BF00BF95
:101D400002680C3252E8002F22F4907102680C32C3
:101D500042E80013002BF3D100BF00BF00BF0268B0
:101D6000143252E8002F22F001010268143242E8D6
:101D70000013002BF3D100BF016B01290ED100BF6E
:101D800000BF02680C3252E8002F22F010010268F6
:101D90000C3242E80013002BF3D100BF202180F861
:101DA000421000210163704770B50446216809693B
:101DB00021F44051E2681143226811612269A1684F
:101DC0001143626941EA02052168C96841F20C6267
:101DD000914329432268D1602168496921F4407107
:101DE000A2691143226851612D4A2168914202D1B2
:101DF000FFF75AFB01E0FFF747FB00EBC00101EBE7
:101E0000001162689200B1FBF2F100EBC00202EB3C
:101E1000001263689B00B2FBF3F26423B2FBF3F29F
:101E200002EBC20303EB0212A1EB8201322202EBAE
:101E300001116422B1FBF2F101F0F00100EBC002EC
:101E400002EB001263689B00B2FBF3F26423B2FB67
:101E5000F3F201EB021200EBC00101EB0011636829
:101E60009B00B1FBF3F100EBC00303EB00136668CA
:101E7000B600B3FBF6F36426B3FBF6F303EBC3063D
:101E800006EB0313A1EB8301322303EB011164235F
:101E9000B1FBF3F101F00F0111442268916070BDB4
:101EA000003801402DE9F84304460D461746984690
:101EB000089E31E0701C70B3FFF76AF9A0EB0800D0
:101EC000B04200D816B90320BDE8F8832068C06886
:101ED00000F00400F8B1802D1ED0402D1CD02068E9
:101EE0000068C0F3C000B0B100BF002000902068BF
:101EF0000068009020684068009000BF00BF204646
:101F0000FFF71CFF0820606400BF002084F8400039
:101F100000BF0120D8E7FFE7206800682840A842FA
:101F200001D1012000E00020B842C3D00020CBE75F
:101F300010B50248FEF76DFC10BD000064000020E3
:101F400000BFFEE70FB4054B10B503A9044A029881
:101F500000F034F810BC5DF814FB000021240008E8
:101F60001800002002480068C0F3022070470000FB
:101F70000CED00E010B5002804DB0A07130E054A3B
:101F8000135406E00A07140E034A00F00F031B1F48
:101F9000D45410BD00E400E018ED00E002E008C8F1
:101FA000121F08C1002AFAD170477047002001E0D3
:101FB00001C1121F002AFBD1704700002DE9FF4F1D
:101FC0008DB00F460546002606E025280BD0DDE93A
:101FD0000F1290476D1C761C28780028F5D111B09F
:101FE0003046BDE8F08F0024A246A1460122EC490C
:101FF00000E0044315F8013F203B02FA03F00842D9
:10200000F7D128782A2810D06FF02F022878A0F175
:102010003001092914D80AEB8A0102EB410144F08E
:10202000020400EB010A6D1CF0E701CF5FEA000A31
:1020300003D544F40054CAF1000A44F002046D1CB4
:1020400028782E2817D115F8010F44F004042A2807
:102050000ED06FF02F022878A0F1300109290AD89C
:1020600009EB890102EB410100EB01096D1CF2E76C
:1020700057F8049B6D1C28786C280FD006DC4C2880
:1020800017D068280DD06A2814D104E0742810D025
:102090007A280FD10DE044F400140AE044F48014CF
:1020A00001E044F440146978814202D104F58014BF
:1020B0006D1C6D1C2A786E2A1FD00CDC632A31D06F
:1020C00004DC002A8BD0582A11D1A3E0642A68D0FE
:1020D000692A0CD165E0732A2ED004DC6F2A73D0F4
:1020E000702A04D19BE0752A6FD0782A6ED01046F2
:1020F000DDE90F129047761C50E1C4F3025002282C
:1021000006D0032809D0042801CF09D0066045E194
:1021100001CFF117C0E9006140E101CF06803DE148
:1021200006703BE117F8040B8DF8000000208DF8D5
:102130000100EB46012003E057F804BB4FF0FF30ED
:1021400061074FF0000102D40DE008F1010188465B
:1021500049450FDA8045F8DB1BF808100029F4D157
:1021600008E008F1010188468142FADB1BF80810FB
:102170000029F6D1DDE90F23AAEB080081462146AC
:1021800000F036F9304400EB080604E0DDE90F12F8
:102190001BF8010B9047B8F10108F7D221464846D9
:1021A000F7E00A21C4F302534FF0000B0891022B11
:1021B00004D001CFC117032B09D00AE0FF1D27F07F
:1021C0000707F7E8020108E032E01FE020E000B274
:1021D000C117042B01D140B2C117031E71F10003D6
:1021E00007DA4FF0000CD0EB0C006CEB01012D2353
:1021F00002E0230504D52B238DF82430012303E0CE
:10220000E30701D02023F7E7984658E00A2110E0C1
:1022100010210EE010204FF0000B08900CE0102170
:102220004FF0000B44F004044FF00809089103E05C
:1022300008214FF0000B0891C4F30253022B04D085
:1022400001CF0021032B06D006E0FF1D27F0070772
:10225000F7E8020103E080B2042B00D1C0B24FF0D6
:10226000000823072BD5702A07D0DDF820C08CF09A
:10227000100C5CEA0B0C05D00EE040238DF82430E6
:10228000012308E050EA010306D030238DF8243002
:102290008DF8252002239846DDF820C08CF0080C2C
:1022A0005CEA0B0C0BD150EA010301D1630706D5A0
:1022B00030238DF824304FF00108A9F10109582A84
:1022C00004D038A20B9208AA0A920BE03AA2F9E7CE
:1022D0005B46089AFDF738FF0B9B9B5C0A9A521EDF
:1022E0000A92137050EA0102F2D10A98ADEB000095
:1022F00000F1200B600702D524F4803401E04FF098
:102300000109D94502DDA9EB0B0000E0002000EB3C
:102310000B0141440890AAEB010AE00306D4DDE971
:102320000F232146504600F063F806444FF00009A1
:1023300008E009A911F80900DDE90F12904709F139
:102340000109761CC145F4DBE0030CD5DDE90F2360
:102350002146504600F04CF8064404E0DDE90F1237
:1023600030209047761C0899481E08900029F5DC1B
:1023700008E00A980A990078491C0A91DDE90F12D1
:102380009047761CBBF10001ABF1010BF1DC21465B
:102390005046DDE90F2300F019F806446D1C1BE6DA
:1023A000092801003031323334353637383961622B
:1023B00063646566000000003031323334353637EF
:1023C0003839414243444546000000002DE9F041C0
:1023D000044600251E461746880404D405E0394605
:1023E0002020B0476D1C641EF9D52846BDE8F08159
:1023F0002DE9F041044600251E469046C80301D54C
:10240000302700E02027880404D505E041463846FF
:10241000B0476D1C641EF9D52846BDE8F081000068
:1024200013B50C464FF0FF33012269460248FFF70F
:102430004FFB00981CBD00001C00002088B0FEF778
:10244000B9FEFFF74AFCFFF7FFFBFFF7A3FBFDF721
:10245000B7FFFDF79FFFFDF721FF26A0006807905B
:1024600025A003C8CDE9050125A103C9CDE90301D4
:1024700025A103C9CDE90101002406E0032207A933
:1024800040F22310FDF71AFF641C0F2CF6DB2FE03F
:102490004FF44870FEF7CAFC082205A940F2231049
:1024A000FDF70CFF08E0082203A940F22310FDF716
:1024B00005FFC820FEF7BAFC01211548FEF75AFEB9
:1024C000012800D100E000200028ECD105E008221E
:1024D00001A940F22310FDF7F1FE4FF400510D4821
:1024E000FEF748FE012800D100E000200028EED1D0
:1024F000CEE7000001020300000000000000000A17
:1025000000000000000003E8FFFFFFFFFFFFFFFFE8
:102510000008014000100140000000000000000021
:102520000102030406070809000000000102030479
:1025300002030405060708090A0B0C0D0E0F101004
:102540000102000064250008000000201C000000BB
:102550009C1F0008802500081C0000207404000057
:10256000AC1F000800127A000000000010000000FC
:10257000010000000000000000000000000000005A
:04000005080000ED02
:00000001FF
